012021062502A1AP34      010ADVANCE AUTODRN ED       R$  000000000622800000000063400000000006228000000000627100000000063240000000006028000000000000000007000000000000000054000000000000338642000000000000009999123100000010000000000000BRA1APBDR001107
012021062502A1CR34      010AMCOR PLC   DRN          R$  000000000574200000000057420000000005742000000000574200000000057420000000000000000000000642000001000000000000000001000000000000005742000000000000009999123100000010000000000000BRA1CRBDR003103
012021062502A1DM34      010ARCHER DANIEDRN          R$  000000003051000000000305100000000030510000000003051000000000305100000000000000000000000000000001000000000000000001000000000000030510000000000000009999123100000010000000000000BRA1DMBDR002106
012021062502A1EG34      010AEGON NV    DRN          R$  000000000210000000000021040000000002097000000000210000000000020970000000002014000000000250000004000000000000000004000000000000008403000000000000009999123100000010000000000000BRA1EGBDR002101
012021062502A1ES34      010AES CORP    DRN          R$  000000001284300000000129860000000012843000000001290700000000129860000000011701000000001309200005000000000000000005000000000000064535000000000000009999123100000010000000000000BRA1ESBDR007106
012021062502A1IV34      010APARTMENT INDRN          R$  000000000365700000000037000000000003657000000000366500000000037000000000003621000000000390500002000000000000000358000000000001312130000000000000009999123100000010000000000000BRA1IVBDR002106
012021062502A1LB34      010ALBEMARLE CODRN          R$  000000008300500000000830660000000083005000000008302100000000830660000000079600000000000000000002000000000000000137000000000011373942000000000000009999123100000010000000000000BRA1LBBDR008106
012021062502A1LL34      010ALLIANCE DATDRN          R$  000000001319600000000131960000000013196000000001319600000000131960000000006023000000001569600001000000000000000713000000000009408748000000000000009999123100000010000000000000BRA1LLBDR007106
012021062502A1LN34      010ALNYLAM PHARDRN          R$  000000000420600000000043100000000004206000000000423900000000042960000000003600000000000000000005000000000000000015000000000000063590000000000000009999123100000010000000000000BRA1LNBDR003100
012021062502A1MB34      010AMERISOURCEBDRN          R$  000000002886400000000288640000000028864000000002886400000000288640000000000000000000000000000002000000000000000100000000000002886400000000000000009999123100000010000000000000BRA1MBBDR006106
012021062502A1MD34      010ADVANCED MICDRN          R$  000000004235000000000426000000000041800000000004228300000000425010000000041000000000004280000015000000000000001171000000000049513765000000000000009999123100000010000000000000BRA1MDBDR002100
012021062502A1MT34      010APPLIED MATEDRN          R$  000000006813600000000681360000000068136000000006813600000000681360000000057777000000008000000001000000000000000050000000000003406800000000000000009999123100000010000000000000BRA1MTBDR008106
012021062502A1NS34      010ANSYS INC   DRN          R$  000000004250400000000425040000000042504000000004250400000000425040000000000000000000000000000001000000000000000001000000000000042504000000000000009999123100000010000000000000BRA1NSBDR008100
012021062502A1OS34      010AO SMITH CORDRN          R$  000000003434000000000343400000000034300000000003432600000000343000000000000000000000003434000003000000000000000150000000000005149000000000000000009999123100000010000000000000BRA1OSBDR006106
012021062502A1RE34      010ALEXANDRIA RDRN          R$  000000002270900000000227910000000022709000000002276600000000227910000000021505000000002336000003000000000000000030000000000000682994000000000000009999123100000010000000000000BRA1REBDR009105
012021062502A1TT34      010ALLSTATE CORDRN          R$  000000003212800000000321280000000032128000000003212800000000321280000000000000000000000000000001000000000000000001000000000000032128000000000000009999123100000010000000000000BRA1TTBDR003106
012021062502A1UA34      010ANGLOGOLD ASDRN          R$  000000000235700000000023570000000002306000000000234400000000023230000000002316000000000235000016000000000000000828000000000001941121000000000000009999123100000010000000000000BRA1UABDR001101
012021062502A1UT34      010AUTODESK INCDRN          R$  000000003543100000000358670000000035419000000003568500000000357690000000035540000000003880000019000000000000003055000000000109020672000000000000009999123100000010000000000000BRA1UTBDR001100
012021062502A1VB34      010AVALONBAY CODRN          R$  000000002610400000000261440000000026104000000002614000000000261440000000025800000000002831500002000000000000000088000000000002300352000000000000009999123100000010000000000000BRA1VBBDR007105
012021062502A1YX34      010ALTERYX INC DRN          R$  000000000216000000000021900000000002160000000000218000000000021900000000001938000000000298000002000000000000000003000000000000006540000000000000009999123100000010000000000000BRA1YXBDR005100
012021062502A1ZN34      010ASTRAZENECA DRN          R$  000000000479500000000048950000000004795000000000485600000000048800000000004790000000000489500077000000000000013112000000000063681161000000000000009999123100000010000000000000BRA1ZNBDR003101
012021062502AALL34      010AMERICAN AIRDRN          R$  000000001095000000000110330000000010850000000001095500000000110140000000010850000000001101500064000000000000007812000000000085580915000000000000009999123100000010000000000000BRAALLBDR003115
012021062502AALR3       010ALLIAR      ON      NM   R$  000000000117500000000011820000000001113000000000114300000000011300000000001130000000000113101799000000000000894400000000001022618600000000000000009999123100000010000000000000BRAALRACNOR6102
012021062502AAPL34      010APPLE       DRN          R$  000000000652900000000066230000000006529000000000658700000000065580000000006558000000000658005721000000000000098023000000000645740195000000000000009999123100000010000000000000BRAAPLBDR004138
012021062502ABBV34      010ABBVIE      DRN          R$  000000005611900000000561410000000055000000000005597600000000558880000000054800000000005900000113000000000000000823000000000046068614000000000000009999123100000010000000000000BRABBVBDR001121
012021062502ABCB4       010ABC BRASIL  PN      N2   R$  000000000172800000000017280000000001671000000000169400000000016990000000001690000000000169903106000000000000552600000000000936273400000000000000009999123100000010000000000000BRABCBACNPR4136
012021062502ABEV3       010AMBEV S/A   ON           R$  000000000178300000000018000000000001695000000000172000000000016950000000001694000000000169553102000000000066198100000000113913918400000000000000009999123100000010000000000000BRABEVACNOR1124
012021062502ABTT34      010ABBOTT      DRN          R$  000000001392900000000140140000000013902000000001396700000000139300000000013700000000001483000116000000000000000341000000000004762747000000000000009999123100000010000000000000BRABTTBDR007138
012021062502ABUD34      010AB INBEV    DRN          R$  000000000620400000000062220000000006192000000000620900000000062220000000006028000000000640400003000000000000000063000000000000391206000000000000009999123100000010000000000000BRABUDBDR009104
012021062502ADBE34      010ADOBE INC   DRN          R$  000000000569400000000057670000000005666000000000571900000000057180000000005725000000000580000117000000000000007123000000000040741039000000000000009999123100000010000000000000BRADBEBDR003101
012021062502ADPR34      010AUTOMATIC DTDRN          R$  000000004817700000000487210000000048177000000004817800000000487210000000000000000000000000000002000000000000000301000000000014501821000000000000009999123100000010000000000000BRADPRBDR005108
012021062502AERI3       010AERIS       ON      NM   R$  000000000101500000000010220000000000960000000000098800000000009860000000000985000000000098609467000000000003816600000000003772627500000000000000009999123100000010000000000000BRAERIACNOR4100
012021062502AESB3       010AES BRASIL  ON      NM   R$  000000000143500000000014460000000001408000000000141900000000014110000000001411000000000141403341000000000001195200000000001696397400000000000000009999123100000010000000000000BRAESBACNOR7101
012021062502AFLT3       010AFLUENTE T  ON           R$  000000000101300000000010490000000001013000000000103000000000010480000000001027000000000104700009000000000000001300000000000001339200000000000000009999123100000010000000000000BRAFLTACNOR1117
012021062502AGRO3       010BRASILAGRO  ON      NM   R$  000000000304000000000030570000000002919000000000297700000000029590000000002957000000000295903772000000000000945200000000002814138900000000000000009999123100000010000000000000BRAGROACNOR7110
012021062502AIRB34      010AIRBNB      DRN          R$  000000000369600000000037540000000003680000000000371800000000037100000000003710000000000371300346000000000000067497000000000251007951000000000000009999123100000010000000000000BRAIRBBDR004100
012021062502ALLD3       010ALLIED      ON      NM   R$  000000000295300000000030500000000002855000000000297900000000030330000000003033000000000303702638000000000000624200000000001859991900000000000000009999123100000010000000000000BRALLDACNOR3100
012021062502ALPA3       010ALPARGATAS  ON      N1   R$  000000000430000000000043000000000004194000000000424800000000042010000000004200000000000428500011000000000000005100000000000021667500000000000000009999123100000010000000000000BRALPAACNOR0229
012021062502ALPA4       010ALPARGATAS  PN      N1   R$  000000000500300000000050650000000004882000000000497000000000049490000000004919000000000494906448000000000001383000000000006874240900000000000000009999123100000010000000000000BRALPAACNPR7229
012021062502ALPK3       010ESTAPAR     ON      NM   R$  000000000083200000000008480000000000819000000000082900000000008210000000000821000000000083000114000000000000024800000000000020563900000000000000009999123100000010000000000000BRALPKACNOR9100
012021062502ALSO3       010ALIANSCSONAEON      NM   R$  000000000308700000000030890000000002954000000000300100000000029810000000002981000000000298406996000000000001738100000000005217642300000000000000009999123100000010000000000000BRALSOACNOR5101
012021062502ALUP3       010ALUPAR      ON      N2   R$  000000000086900000000008760000000000856000000000086700000000008570000000000857000000000086400172000000000000020600000000000017871900000000000000009999123100000010000000000000BRALUPACNOR8112
012021062502ALUP4       010ALUPAR      PN      N2   R$  000000000090800000000009130000000000885000000000090000000000008890000000000889000000000090000200000000000000035100000000000031598300000000000000009999123100000010000000000000BRALUPACNPR5112
012021062502ALUP11      010ALUPAR      UNT     N2   R$  000000000268100000000026910000000002623000000000264600000000026300000000002630000000000263904605000000000001200500000000003176807300000000000000009999123100000010000000000000BRALUPCDAM15112
012021062502AMAR3       010LOJAS MARISAON      NM   R$  000000000092600000000009620000000000902000000000093600000000009420000000000940000000000094212265000000000014360000000000013441390000000000000000009999123100000010000000000000BRAMARACNOR4112
012021062502AMBP3       010AMBIPAR     ON      NM   R$  000000000393000000000039720000000003902000000000394100000000039630000000003962000000000396302135000000000000451800000000001780854000000000000000009999123100000010000000000000BRAMBPACNOR6101
012021062502AMGN34      010AMGEN       DRN          R$  000000000429800000000042980000000004298000000000429800000000042980000000004225000000000455100001000000000000000010000000000000042980000000000000009999123100000010000000000000BRAMGNBDR004139
012021062502AMZO34      010AMAZON      DRN          R$  000000001080000000000108460000000010625000000001074600000000106750000000010674000000001067505745000000000000102862000000001105420166000000000000009999123100000010000000000000BRAMZOBDR002102
012021062502ANIM3       010ANIMA       ON      NM   R$  000000000138600000000013970000000001340000000000136500000000013620000000001359000000000136204909000000000001903100000000002597968700000000000000009999123100000010000000000000BRANIMACNOR6107
012021062502APER3       010ALPER S.A.  ON      NM   R$  000000000492600000000049810000000004702000000000486700000000047640000000004761000000000480000626000000000000077700000000000378203500000000000000009999123100000010000000000000BRAPERACNOR9103
012021062502APTV34      010APTIV PLC   DRN          R$  000000003860000000000386000000000038600000000003860000000000386000000000000000000000000000000001000000000000000001000000000000038600000000000000009999123100000010000000000000BRAPTVBDR003102
012021062502ARMT34      010ARCELOR     DRN          R$  000000000770000000000077760000000007690000000000773200000000076960000000007651000000000770000031000000000000000956000000000007392569000000000000009999123100000010000000000000BRARMTBDR008118
012021062502ARZZ3       010AREZZO CO   ON      NM   R$  000000000945400000000094540000000009185000000000930400000000092790000000009279000000000928101840000000000000279700000000002602603800000000000000009999123100000010000000000000BRARZZACNOR3139
012021062502ASAI3       010ASSAI       ON      NM   R$  000000000873100000000087840000000008420000000000851500000000084890000000008489000000000849006242000000000001215600000000010351221100000000000000009999123100000010000000000000BRASAIACNOR0101
012021062502ASML34      010ASML HOLD   DRN          R$  000000034000000000003400000000000340000000000034000000000003400000000000335000000000035666900001000000000000000010000000000003400000000000000000009999123100000010000000000000BRASMLBDR003104
012021062502ATOM3       010ATOMPAR     ON           R$  000000000080000000000008400000000000762000000000080200000000007640000000000763000000000076600517000000000000185500000000000148828200000000000000009999123100000010000000000000BRATOMACNOR1104
012021062502ATTB34      010ATT INC     DRN          R$  000000000470000000000047870000000004695000000000475500000000047470000000004747000000000478900149000000000000007520000000000035760795000000000000009999123100000010000000000000BRATTBBDR007136
012021062502ATVI34      010ACTIVISION  DRN          R$  000000004570900000000459610000000045680000000004576000000000457050000000045500000000004594500019000000000000000214000000000009792815000000000000009999123100000010000000000000BRATVIBDR008102
012021062502AURA33      010AURA 360    DR3          R$  000000000679400000000068570000000006735000000000678900000000067700000000006760000000000677004168000000000000097135000000000659472412000000000000009999123100000010000000000000BRAURABDR001104
012021062502AVGO34      010BROADCOM INCDRN ED       R$  000000000658000000000066130000000006580000000000661200000000066130000000006450000000000763900002000000000000005104000000000033752620000000000000009999123100000010000000000000BRAVGOBDR003110
012021062502AVLL3       010ALPHAVILLE  ON      NM   R$  000000000247000000000025000000000002452000000000247400000000025000000000002000000000000250000012000000000000001700000000000004206400000000000000009999123100000010000000000000BRAVLLACNOR5101
012021062502AXPB34      010AMERICAN EXPDRN          R$  000000000839200000000084080000000008392000000000840700000000084080000000007950000000000850000002000000000000000051000000000000428792000000000000009999123100000010000000000000BRAXPBBDR007137
012021062502AZEV3       010AZEVEDO     ON           R$  000000000077100000000008000000000000711000000000076100000000007160000000000716000000000071700661000000000000243300000000000185277300000000000000009999123100000010000000000000BRAZEVACNOR0119
012021062502AZEV4       010AZEVEDO     PN           R$  000000000068900000000007100000000000635000000000066000000000006470000000000647000000000064802618000000000001295100000000000855338600000000000000009999123100000010000000000000BRAZEVACNPR7119
012021062502AZUL4       010AZUL        PN      N2   R$  000000000469100000000047200000000004562000000000461600000000045970000000004595000000000459711441000000000003749500000000017309750000000000000000009999123100000010000000000000BRAZULACNPR4100
012021062502B1AM34      010BROOKFIELD ADRN          R$  000000000600000000000064890000000006000000000000641900000000064190000000006000000000000680000003000000000000000009000000000000057772000000000000009999123100000010000000000000BRB1AMBDR007104
012021062502B1BL34      010BHP GROUP PLDRN          R$  000000000591300000000059610000000005913000000000594100000000059610000000005736000000000610500002000000000000000050000000000000297090000000000000009999123100000010000000000000BRB1BLBDR007101
012021062502B1CS34      010BARCLAYS PLCDRN          R$  000000000488000000000048800000000004880000000000488000000000048800000000003800000000000555600001000000000000000003000000000000014640000000000000009999123100000010000000000000BRB1CSBDR000101
012021062502B1IL34      010BILIBILI INCDRN          R$  000000001190000000000125180000000011900000000001232900000000123800000000012529000000001265000037000000000000003201000000000039465365000000000000009999123100000010000000000000BRB1ILBDR002100
012021062502B1KR34      010BAKER HUGHESDRN          R$  000000001171200000000117120000000011712000000001171200000000117120000000000000000000000000000001000000000000000009000000000000105408000000000000009999123100000010000000000000BRB1KRBDR005106
012021062502B1MR34      010BIOMARIN PHADRN          R$  000000002099900000000209990000000020900000000002094500000000209000000000020011000000002123100002000000000000000011000000000000230395000000000000009999123100000010000000000000BRB1MRBDR001100
012021062502B1NT34      010BIONTECH SE DRN          R$  000000001414700000000142000000000013972000000001409300000000141610000000013950000000001413500115000000000000006653000000000093762464000000000000009999123100000010000000000000BRB1NTBDR005100
012021062502B1PP34      010BP PLC      DRN          R$  000000000338400000000034020000000003370000000000338800000000033880000000003320000000000346600014000000000000001109000000000003757945000000000000009999123100000010000000000000BRB1PPBDR008103
012021062502B1SA34      010BANCO SANTANDRN          R$  000000000513000000000051300000000005075000000000508400000000050800000000005000000000000523700005000000000000000044000000000000223705000000000000009999123100000010000000000000BRB1SABDR004102
012021062502B1TI34      010BRITISH AMERDRN          R$  000000000386300000000039120000000003840000000000389400000000039000000000003892000000000411000024000000000000001120000000000004362361000000000000009999123100000010000000000000BRB1TIBDR005102
012021062502B1WA34      010BORGWARNER IDRN          R$  000000002411900000000241190000000024119000000002411900000000241190000000024100000000000000000001000000000000000003000000000000072357000000000000009999123100000010000000000000BRB1WABDR006106
012021062502B2YN34      010BEYOND MEAT DRN          R$  000000000358500000000035850000000003531000000000355900000000035500000000003517000000000384000005000000000000000043000000000000153039000000000000009999123100000010000000000000BRB2YNBDR003100
012021062502B3SA3       010B3          ON      NM   R$  000000000169900000000017080000000001644000000000167400000000016690000000001668000000000166963260000000000048911900000000081899779500000000000000009999123100000010000000000000BRB3SAACNOR6116
012021062502BAAX39      010MSCI ASIA JPDRN          R$  000000000466000000000047100000000004660000000000470300000000046950000000004680000000000483000095000000000000032830000000000154411414000000000000009999123100000010000000000000BRBAAXBDR009102
012021062502BABA34      010ALIBABAGR   DRN          R$  000000000387000000000040620000000003870000000000395600000000040620000000004055000000000406203088000000000000497634000000001969009960000000000000009999123100000010000000000000BRBABABDR005101
012021062502BACW39      010MSCI ACWI   DRN          R$  000000000498700000000050510000000004984000000000503500000000050290000000005000000000000505000244000000000000159494000000000803069424000000000000009999123100000010000000000000BRBACWBDR007102
012021062502BAER39      010US AEROSPACEDRN          R$  000000000278000000000027940000000002765000000000277800000000027780000000002750000000000342600105000000000000003461000000000009616166000000000000009999123100000010000000000000BRBAERBDR003104
012021062502BAHI3       010BAHEMA      ON      MA   R$  000000000775600000000077560000000007730000000000773800000000077300000000007700000000000779900012000000000000001600000000000012381600000000000000009999123100000010000000000000BRBAHIACNOR1072
012021062502BALM3       010BAUMER      ON           R$  000000000193000000000019750000000001930000000000195200000000019750000000001925000000000197300008000000000000000900000000000001757300000000000000009999123100000010000000000000BRBALMACNOR5051
012021062502BALM4       010BAUMER      PN           R$  000000000191200000000020400000000001750000000000186100000000019900000000001830000000000198900069000000000000015600000000000029035100000000000000009999123100000010000000000000BRBALMACNPR2052
012021062502BAUH4       010EXCELSIOR   PN           R$  000000000889700000000089000000000008897000000000889800000000089000000000000000000000000890000002000000000000000200000000000001779700000000000000009999123100000010000000000000BRBAUHACNPR3116
012021062502BAZA3       010AMAZONIA    ON           R$  000000000406500000000040650000000004048000000000405700000000040650000000004031000000000410000007000000000000001400000000000005680600000000000000009999123100000010000000000000BRBAZAACNOR0175
012021062502BBAS3       010BRASIL      ON      NM   R$  000000000340800000000034170000000003281000000000332300000000032900000000003290000000000330027728000000000012681600000000042143373600000000000000009999123100000010000000000000BRBBASACNOR3299
012021062502BBDC3       010BRADESCO    ON      N1   R$  000000000230600000000023210000000002225000000000226300000000022470000000002246000000000224719433000000000008372600000000018950679000000000000000009999123100000010000000000000BRBBDCACNOR1727
012021062502BBDC4       010BRADESCO    PN      N1   R$  000000000272000000000027290000000002623000000000266300000000026390000000002639000000000264051418000000000027898800000000074304200300000000000000009999123100000010000000000000BRBBDCACNPR8727
012021062502BBRK3       010BR BROKERS  ON      NM   R$  000000000025500000000002930000000000245000000000026700000000002590000000000259000000000026011153000000000018381300000000004911453000000000000000009999123100000010000000000000BRBBRKACNOR4114
012021062502BBSE3       010BBSEGURIDADEON      NM   R$  000000000246800000000024680000000002371000000000240600000000023920000000002391000000000239226117000000000005723400000000013772969200000000000000009999123100000010000000000000BRBBSEACNOR5118
012021062502BCHI39      010MSCI CHINA  DRN          R$  000000000506400000000051450000000005064000000000513400000000051300000000005114000000000523600034000000000000004230000000000021717356000000000000009999123100000010000000000000BRBCHIBDR001102
012021062502BCSA34      010SANTANDER   DRN          R$  000000000199200000000020190000000001970000000000199500000000020160000000001994000000000201900056000000000000004989000000000009955105000000000000009999123100000010000000000000BRBCSABDR005103
012021062502BCWV39      010MSCIGLMIVOLFDRN          R$  000000000511000000000051650000000005110000000000513900000000051420000000003831000000000000000103000000000000008060000000000041423083000000000000009999123100000010000000000000BRBCWVBDR003101
012021062502BDVY39      010SELECT DIVIDDRN          R$  000000000571800000000058610000000005718000000000584000000000058490000000005801000000000601800008000000000000000091000000000000531456000000000000009999123100000010000000000000BRBDVYBDR007103
012021062502BEEF3       010MINERVA     ON      NM   R$  000000000098100000000009900000000000966000000000097200000000009710000000000970000000000097111620000000000005584800000000005433797400000000000000009999123100000010000000000000BRBEEFACNOR6111
012021062502BEEM39      010MSCI EMGMARKDRN          R$  000000000455000000000045890000000004545000000000456200000000045750000000004561000000000469900057000000000000043568000000000198764559000000000000009999123100000010000000000000BRBEEMBDR006102
012021062502BEES3       010BANESTES    ON           R$  000000000053800000000005380000000000533000000000053500000000005330000000000533000000000053600100000000000000026800000000000014343100000000000000009999123100000010000000000000BRBEESACNOR9349
012021062502BEES4       010BANESTES    PN           R$  000000000060700000000006080000000000601000000000060300000000006010000000000601000000000060600012000000000000002100000000000001267500000000000000009999123100000010000000000000BRBEESACNPR6274
012021062502BEFA39      010MSCI EAFE   DRN          R$  000000000492300000000049650000000004923000000000496400000000049650000000004892000000000518100013000000000000009211000000000045732153000000000000009999123100000010000000000000BRBEFABDR008102
012021062502BEGD39      010TRTMSCI EAFEDRN          R$  000000000497400000000049740000000004974000000000497400000000049740000000004800000000000505600001000000000000000001000000000000004974000000000000009999123100000010000000000000BRBEGDBDR000102
012021062502BEGE39      010INC ESG AWARDRN          R$  000000000561700000000056170000000005617000000000561700000000056170000000005500000000000565000001000000000000000001000000000000005617000000000000009999123100000010000000000000BRBEGEBDR008102
012021062502BEGU39      010TRUSTMSCI USDRN          R$  000000000487100000000048710000000004871000000000487100000000048710000000004820000000000489900001000000000000000001000000000000004871000000000000009999123100000010000000000000BRBEGUBDR004103
012021062502BERK34      010BERKSHIRE   DRN          R$  000000000680500000000069090000000006770000000000681500000000068680000000006868000000000691000546000000000000138571000000000944405208000000000000009999123100000010000000000000BRBERKBDR002101
012021062502BEWA39      010MSCIAUSTRALIDRN          R$  000000000434900000000043490000000004349000000000434900000000043490000000004300000000000456800001000000000000000002000000000000008698000000000000009999123100000010000000000000BRBEWABDR003101
012021062502BEWC39      010MSCI CANADA DRN          R$  000000000460000000000046000000000004600000000000460000000000046000000000000000000000000000000001000000000000000004000000000000018400000000000000009999123100000010000000000000BRBEWCBDR009101
012021062502BEWG39      010MSCI GERMANYDRN          R$  000000000574200000000058030000000005742000000000580200000000057830000000005712000000000582700004000000000000000991000000000005749847000000000000009999123100000010000000000000BRBEWGBDR000102
012021062502BEWH39      010MSCIHONGKONGDRN          R$  000000000444800000000044480000000004448000000000444800000000044480000000004270000000000453500001000000000000000101000000000000449248000000000000009999123100000010000000000000BRBEWHBDR008102
012021062502BEWJ39      010MSCI JAPAN  DRN          R$  000000000422800000000042470000000004210000000000423300000000042320000000004200000000000436000046000000000000007831000000000033156243000000000000009999123100000010000000000000BRBEWJBDR004102
012021062502BEWT39      010MSCI TAIWAN DRN          R$  000000000520300000000052490000000005203000000000522100000000052490000000005200000000000535800003000000000000001076000000000005618162000000000000009999123100000010000000000000BRBEWTBDR003101
012021062502BEWU39      010MSCI UK     DRN          R$  000000000543300000000055000000000005425000000000547400000000054900000000005425000000000565000005000000000000000213000000000001166033000000000000009999123100000010000000000000BRBEWUBDR001102
012021062502BEWW39      010MSCI MEXICO DRN          R$  000000000599300000000060090000000005993000000000600200000000060090000000005779000000000613800004000000000000001212000000000007274740000000000000009999123100000010000000000000BRBEWWBDR007103
012021062502BEWZ39      010MSCI BRAZIL DRN          R$  000000000677200000000067720000000006772000000000677200000000067720000000000000000000000000000001000000000000000010000000000000067720000000000000009999123100000010000000000000BRBEWZBDR000102
012021062502BEZU39      010MSCIEUROZONEDRN          R$  000000000621100000000062360000000006190000000000621400000000062150000000006097000000000647700035000000000000025855000000000160669636000000000000009999123100000010000000000000BRBEZUBDR004102
012021062502BGIP4       010BANESE      PN           R$  000000000252300000000025380000000002523000000000253000000000025380000000002467000000000251900002000000000000000200000000000000506100000000000000009999123100000010000000000000BRBGIPACNPR8200
012021062502BGRT39      010GLOBAL REIT DRN          R$  000000000465000000000047060000000004650000000000467800000000046890000000004515000000000000000109000000000000010634000000000049751401000000000000009999123100000010000000000000BRBGRTBDR008101
012021062502BGWH39      010COREDIVGROWTDRN          R$  000000000492000000000049200000000004920000000000492000000000049200000000004920000000000000000001000000000000000008000000000000039360000000000000009999123100000010000000000000BRBGWHBDR003101
012021062502BIAU39      010GOLD TRUST  DRN          R$  000000000419200000000042100000000004169000000000418100000000041900000000004190000000000425000043000000000000004597000000000019220266000000000000009999123100000010000000000000BRBIAUBDR008102
012021062502BIBB39      010ICE BIOTECH DRN          R$  000000000534800000000054250000000005337000000000537800000000054250000000005337000000000551500010000000000000005346000000000028752865000000000000009999123100000010000000000000BRBIBBBDR006103
012021062502BIDI3       010BANCO INTER ON      N2   R$  000000000227300000000023650000000002266000000000230200000000022750000000002275000000000228003344000000000000645100000000001485328600000000000000009999123100000010000000000000BRBIDIACNOR3109
012021062502BIDI4       010BANCO INTER PN      N2   R$  000000000236800000000024190000000002331000000000236500000000023450000000002345000000000234609381000000000003310700000000007830818400000000000000009999123100000010000000000000BRBIDIACNPR0113
012021062502BIDI11      010BANCO INTER UNT     N2   R$  000000000714000000000072200000000006900000000000701000000000070000000000006992000000000700012443000000000012248100000000085868380400000000000000009999123100000010000000000000BRBIDICDAXX3108
012021062502BIDU34      010BAIDU INC   DRN          R$  000000009677400000001001280000000096774000000009940800000000999370000000099263000000010279800050000000000000001791000000000178039893000000000000009999123100000010000000000000BRBIDUBDR002100
012021062502BIEM39      010COREMSCI EMKDRN          R$  000000000560000000000056000000000005515000000000556400000000055700000000005539000000000570600026000000000000006001000000000033391888000000000000009999123100000010000000000000BRBIEMBDR007102
012021062502BIEU39      010COREMSCI EURDRN          R$  000000000479000000000048180000000004755000000000480600000000048040000000004765000000000500800309000000000000017136000000000082361149000000000000009999123100000010000000000000BRBIEUBDR000102
012021062502BIEV39      010EUROPE ETF  DRN          R$  000000000538400000000053840000000005306000000000538100000000053060000000005251000000000579000003000000000000000028000000000000150674000000000000009999123100000010000000000000BRBIEVBDR008101
012021062502BIGF39      010GLOBAL INFRADRN          R$  000000000572900000000057660000000005711000000000574900000000057540000000005682000000000595000037000000000000006476000000000037230631000000000000009999123100000010000000000000BRBIGFBDR006102
012021062502BIHI39      010USMEDICDEVICDRN          R$  000000000510000000000051000000000005100000000000510000000000051000000000004896000000000535500003000000000000000217000000000001106700000000000000009999123100000010000000000000BRBIHIBDR008101
012021062502BIIB34      010BIOGEN      DRN          R$  000000002860000000000286000000000028600000000002860000000000286000000000022800000000003000000001000000000000000001000000000000028600000000000000009999123100000010000000000000BRBIIBBDR001101
012021062502BIJH39      010CORE MIDCAP DRN          R$  000000000665000000000067190000000006650000000000665100000000067190000000006585000000000000000003000000000000000154000000000001024369000000000000009999123100000010000000000000BRBIJHBDR006103
012021062502BIJR39      010CORESMALLCAPDRN          R$  000000000708400000000071000000000007077000000000708400000000070770000000006950000000000000000004000000000000000037000000000000262142000000000000009999123100000010000000000000BRBIJRBDR005103
012021062502BILF39      010LATIN AMER40DRN          R$  000000000530900000000053090000000005248000000000527800000000052540000000005100000000000000000102000000000000009100000000000048031019000000000000009999123100000010000000000000BRBILFBDR006102
012021062502BIOM3       010BIOMM       ON      MA   R$  000000000157400000000015800000000001565000000000156900000000015750000000001565000000000157900046000000000000012600000000000019777500000000000000009999123100000010000000000000BRBIOMACNOR2108
012021062502BITO39      010CORE SP TOTADRN          R$  000000000483100000000048850000000004831000000000486300000000048850000000004878000000000518100008000000000000000054000000000000262613000000000000009999123100000010000000000000BRBITOBDR001103
012021062502BIVB39      010CORE SP 500 DRN          R$  000000000526000000000053260000000005249000000000531100000000052970000000005250000000000529700016000000000000001238000000000006575260000000000000009999123100000010000000000000BRBIVBBDR004103
012021062502BIVE39      010SP500 VALUE DRN          R$  000000000483200000000048320000000004832000000000483200000000048320000000004828000000000506100001000000000000000200000000000000966400000000000000009999123100000010000000000000BRBIVEBDR008101
012021062502BIVW39      010SP500GROWTH DRN          R$  000000000440000000000044210000000004400000000000442000000000044210000000004401000000000463600002000000000000000207000000000000915000000000000000009999123100000010000000000000BRBIVWBDR000101
012021062502BIXJ39      010GLOBALHEALTHDRN          R$  000000000513800000000051610000000005121000000000514200000000051490000000005036000000000550900037000000000000002924000000000015037795000000000000009999123100000010000000000000BRBIXJBDR003102
012021062502BIXN39      010GLOBAL TECH DRN          R$  000000000546300000000055340000000005463000000000550600000000055000000000005289000000000570000050000000000000003668000000000020196452000000000000009999123100000010000000000000BRBIXNBDR005102
012021062502BIYF39      010US FINANCIALDRN          R$  000000000278300000000027830000000002660000000000269500000000027080000000002635000000000275000013000000000000006146000000000016568642000000000000009999123100000010000000000000BRBIYFBDR009104
012021062502BIYW39      010US TECHNOLOGDRN          R$  000000000138000000000013880000000001379000000000138400000000013850000000001360000000000140700006000000000000001392000000000001926918000000000000009999123100000010000000000000BRBIYWBDR004104
012021062502BKBR3       010BK BRASIL   ON      NM   R$  000000000122900000000012300000000001205000000000121800000000012160000000001216000000000121705666000000000002605900000000003174596700000000000000009999123100000010000000000000BRBKBRACNOR4103
012021062502BKNG34      010BOOKING     DRN          R$  000000000635000000000065200000000006312000000000648500000000064890000000006500000000000651700080000000000000025275000000000163917354000000000000009999123100000010000000000000BRBKNGBDR006101
012021062502BLAK34      010BLACKROCK   DRN          R$  000000007156800000000715680000000071142000000007141100000000712130000000069100000000007500000003000000000000000005000000000000357059000000000000009999123100000010000000000000BRBLAKBDR003121
012021062502BLAU3       010BLAU        ON      NM   R$  000000000491700000000049170000000004723000000000480500000000048490000000004802000000000484901503000000000000542200000000002605799700000000000000009999123100000010000000000000BRBLAUACNOR8100
012021062502BMEB4       010MERC BRASIL PN      N1   R$  000000000199500000000020000000000001939000000000196800000000020000000000001922000000000199800024000000000000013800000000000027169400000000000000009999123100000010000000000000BRBMEBACNPR5202
012021062502BMGB4       010BANCO BMG   PN      N1   R$  000000000049600000000004980000000000484000000000048900000000004950000000000493000000000049503309000000000001375500000000000673285600000000000000009999123100000010000000000000BRBMGBACNPR0102
012021062502BMIN4       010MERC INVEST PN           R$  000000000209100000000021580000000002091000000000212400000000021580000000002090000000000213000002000000000000000200000000000000424900000000000000009999123100000010000000000000BRBMINACNPR1172
012021062502BMKS3       010BIC MONARK  ON           R$  000000002400000000000242880000000023400000000002375600000000234100000000023410000000002370000025000000000000000782000000000018577206000000000000009999123100000010000000000000BRBMKSACNOR9163
012021062502BMOB3       010BEMOBI TECH ON      NM   R$  000000000222000000000022250000000002130000000000218200000000021720000000002171000000000217702638000000000000609300000000001329634800000000000000009999123100000010000000000000BRBMOBACNOR7100
012021062502BNBR3       010NORD BRASIL ON           R$  000000000680000000000068000000000006800000000000680000000000068000000000006730000000000680000002000000000000000600000000000004080000000000000000009999123100000010000000000000BRBNBRACNOR8201
012021062502BNDA39      010MSCI INDIA  DRN          R$  000000000547000000000055170000000005470000000000551100000000055170000000005410000000000565000006000000000000000550000000000003031257000000000000009999123100000010000000000000BRBNDABDR004102
012021062502BOAC34      010BANK AMERICADRN          R$  000000000511500000000051810000000005030000000000514300000000051370000000005050000000000513700079000000000000021714000000000111695582000000000000009999123100000010000000000000BRBOACBDR004144
012021062502BOAS3       010BOA VISTA   ON      NM   R$  000000000117500000000012470000000001162000000000120900000000011910000000001184000000000119103723000000000001000000000000001209308300000000000000009999123100000010000000000000BRBOASACNOR6101
012021062502BOBR4       010BOMBRIL     PN           R$  000000000027900000000002850000000000266000000000027400000000002680000000000268000000000026900873000000000000862400000000000236501400000000000000009999123100000010000000000000BRBOBRACNPR3128
012021062502BONY34      010BNY MELLON  DRN          R$  000000002502500000000252750000000024002000000002466000000000240020000000024001000000002672100005000000000000000048000000000001183690000000000000009999123100000010000000000000BRBONYBDR001123
012021062502BOXP34      010BOSTON PROP DRN          R$  000000000591100000000059110000000005911000000000591100000000059110000000005802000000000632000002000000000000000070000000000000413770000000000000009999123100000010000000000000BRBOXPBDR008123
012021062502BPAC3       010BTGP BANCO  ON      N2   R$  000000000730200000000073090000000007250000000000727100000000072500000000007210000000000724900031000000000000003900000000000028359800000000000000009999123100000010000000000000BRBPACACNOR7123
012021062502BPAC5       010BTGP BANCO  PNA     N2   R$  000000000285700000000028570000000002791000000000282200000000028140000000002785000000000282500011000000000000003700000000000010443100000000000000009999123100000010000000000000BRBPACACNPA0123
012021062502BPAC11      010BTGP BANCO  UNT     N2   R$  000000001199000000000120890000000011733000000001187300000000118270000000011827000000001182914505000000000002888200000000034291690900000000000000009999123100000010000000000000BRBPACUNT006108
012021062502BPAN4       010BANCO PAN   PN      N1   R$  000000000246100000000024780000000002290000000000235400000000023370000000002336000000000233711418000000000008984500000000021150405000000000000000009999123100000010000000000000BRBPANACNPR1111
012021062502BRAP3       010BRADESPAR   ON      N1   R$  000000000596500000000062210000000005965000000000612100000000062210000000006221000000000624500433000000000000124900000000000764515200000000000000009999123100000010000000000000BRBRAPACNOR5138
012021062502BRAP4       010BRADESPAR   PN      N1   R$  000000000714400000000073210000000007061000000000725400000000073070000000007306000000000731021903000000000004434000000000032165670500000000000000009999123100000010000000000000BRBRAPACNPR2138
012021062502BRBI11      010BR PARTNERS UNT     N2   R$  000000000210100000000022540000000002045000000000212800000000021120000000002112000000000211403380000000000001016800000000002164081500000000000000009999123100000010000000000000BRBRBICDAM10100
012021062502BRDT3       010PETROBRAS BRON      NM   R$  000000000277000000000027780000000002686000000000272200000000027580000000002750000000000275822196000000000009081100000000024719943600000000000000009999123100000010000000000000BRBRDTACNOR1122
012021062502BRFS3       010BRF SA      ON      NM   R$  000000000289300000000029190000000002818000000000284200000000028480000000002847000000000284817073000000000006071300000000017256836800000000000000009999123100000010000000000000BRBRFSACNOR8120
012021062502BRGE3       010ALFA CONSORCON           R$  000000000094000000000009640000000000889000000000092300000000008890000000000881000000000088900012000000000000002200000000000002030900000000000000009999123100000010000000000000BRBRGEACNOR6202
012021062502BRGE6       010ALFA CONSORCPNB          R$  000000000149100000000014910000000001491000000000149100000000014910000000001068000000000200000001000000000000000100000000000000149100000000000000009999123100000010000000000000BRBRGEACNPB7213
012021062502BRGE11      010ALFA CONSORCPNE          R$  000000000090900000000009090000000000909000000000090900000000009090000000000879000000000099000001000000000000000100000000000000090900000000000000009999123100000010000000000000BRBRGEACNPE1106
012021062502BRIV3       010ALFA INVEST ON           R$  000000000112800000000011280000000001049000000000108400000000010590000000001059000000000108800007000000000000000800000000000000867500000000000000009999123100000010000000000000BRBRIVACNOR6206
012021062502BRIV4       010ALFA INVEST PN           R$  000000000089900000000009000000000000898000000000089900000000008990000000000868000000000089700006000000000000005100000000000004585900000000000000009999123100000010000000000000BRBRIVACNPR3212
012021062502BRKM3       010BRASKEM     ON      N1   R$  000000000561500000000056500000000005563000000000560500000000055640000000005520000000000556400017000000000000002700000000000015133700000000000000009999123100000010000000000000BRBRKMACNOR1117
012021062502BRKM5       010BRASKEM     PNA     N1   R$  000000000571900000000057340000000005533000000000560900000000055420000000005542000000000554909470000000000001624700000000009113115200000000000000009999123100000010000000000000BRBRKMACNPA4118
012021062502BRML3       010BR MALLS PARON      NM   R$  000000000110000000000011020000000001054000000000106700000000010600000000001059000000000106228385000000000021127800000000022556659100000000000000009999123100000010000000000000BRBRMLACNOR9115
012021062502BRPR3       010BR PROPERT  ON      NM   R$  000000000094400000000009450000000000913000000000092300000000009200000000000919000000000092005491000000000001946000000000001797640600000000000000009999123100000010000000000000BRBRPRACNOR9121
012021062502BRSR3       010BANRISUL    ON      N1   R$  000000000151500000000015200000000001483000000000149700000000014830000000001483000000000149500045000000000000007300000000000010932200000000000000009999123100000010000000000000BRBRSRACNOR3174
012021062502BRSR6       010BANRISUL    PNB     N1   R$  000000000138100000000013840000000001344000000000135900000000013560000000001354000000000135603730000000000001494600000000002032161400000000000000009999123100000010000000000000BRBRSRACNPB4177
012021062502BSLI3       010BRB BANCO   ON           R$  000000000356000000000035600000000003560000000000356000000000035600000000003535000000000366000004000000000000000700000000000002492000000000000000009999123100000010000000000000BRBSLIACNOR5182
012021062502BSLI4       010BRB BANCO   PN           R$  000000000246500000000025300000000002450000000000246100000000024500000000002400000000000250000007000000000000000800000000000001969500000000000000009999123100000010000000000000BRBSLIACNPR2182
012021062502BSLV39      010SILVER TRUSTDRN          R$  000000000399600000000040000000000003963000000000397600000000039900000000003951000000000399500026000000000000004728000000000018800020000000000000009999123100000010000000000000BRBSLVBDR002100
012021062502BSUS39      010ESGMSCIUSA LDRN          R$  000000000455400000000046980000000004554000000000467000000000046720000000000000000000000000000542000000000000005151000000000024057898000000000000009999123100000010000000000000BRBSUSBDR009101
012021062502BTOW3       010B2W DIGITAL ON      NM   R$  000000000705700000000071170000000006750000000000686600000000068100000000006810000000000681311047000000000002114400000000014518082000000000000000009999123100000010000000000000BRBTOWACNOR8111
012021062502BUSR39      010CORE US REITDRN          R$  000000000483000000000049140000000004830000000000485900000000049000000000004780000000000491900004000000000000000107000000000000519961000000000000009999123100000010000000000000BRBUSRBDR001101
012021062502BVLU39      010MSCIUSVALUEFDRN          R$  000000000516000000000051600000000005160000000000516000000000051600000000003831000000000000000001000000000000000040000000000000206400000000000000009999123100000010000000000000BRBVLUBDR008101
012021062502C1BO34      010CBOE GLOBAL DRN          R$  000000002981900000000298190000000029670000000002980700000000296700000000000000000000000000000002000000000000000065000000000001937490000000000000009999123100000010000000000000BRC1BOBDR000106
012021062502C1BS34      010VIACOMCBS   DRN          R$  000000002125200000000217000000000021252000000002142000000000216510000000020000000000002165100008000000000000000192000000000004112780000000000000009999123100000010000000000000BRC1BSBDR001107
012021062502C1CI34      010CROWN CASTLEDRN          R$  000000002431200000000243120000000024312000000002431200000000243120000000000000000000000000000001000000000000000001000000000000024312000000000000009999123100000010000000000000BRC1CIBDR000106
012021062502C1CL34      010CARNIVAL CORDRN          R$  000000001351300000000139960000000013442000000001377800000000139500000000013600000000001498100039000000000000005459000000000075214943000000000000009999123100000010000000000000BRC1CLBDR004101
012021062502C1ER34      010CERNER CORP DRN ED       R$  000000001942500000000194250000000019425000000001942500000000194250000000000000000000000000000001000000000000000200000000000003885000000000000000009999123100000010000000000000BRC1ERBDR007106
012021062502C1HI34      010CHINA PETROLDRN          R$  000000000427200000000043410000000004272000000000431800000000043410000000004340000000000480000002000000000000000003000000000000012954000000000000009999123100000010000000000000BRC1HIBDR009101
012021062502C1OO34      010COOPER COMPADRN          R$  000000001920000000000192000000000019200000000001920000000000192000000000000000000000000000000001000000000000000001000000000000019200000000000000009999123100000010000000000000BRC1OOBDR003102
012021062502C1OU34      010COUPA SOFTWADRN          R$  000000000418000000000041800000000004180000000000418000000000041800000000002907000000000464900001000000000000000004000000000000016720000000000000009999123100000010000000000000BRC1OUBDR000100
012021062502C1RR34      010CARRIER GLOBDRN ED       R$  000000000571200000000057720000000005712000000000576200000000057720000000005671000000000620000003000000000000000006000000000000034572000000000000009999123100000010000000000000BRC1RRBDR009104
012021062502C1SU34      010CREDIT SUISSDRN          R$  000000000263600000000026790000000002623000000000265000000000026580000000002600000000000268000035000000000000004159000000000011022736000000000000009999123100000010000000000000BRC1SUBDR001102
012021062502C1TX34      010CITRIX SYSTEDRN          R$  000000002850000000000285000000000028500000000002850000000000285000000000027000000000000000000001000000000000000010000000000000285000000000000000009999123100000010000000000000BRC1TXBDR003106
012021062502CAMB3       010CAMBUCI     ON           R$  000000000059100000000006040000000000576000000000059400000000005970000000000590000000000059700433000000000000304200000000000180728800000000000000009999123100000010000000000000BRCAMBACNOR4119
012021062502CAML3       010CAMIL       ON      NM   R$  000000000098400000000009880000000000963000000000097100000000009690000000000967000000000096903830000000000001342900000000001305279900000000000000009999123100000010000000000000BRCAMLACNOR3115
012021062502CAPH34      010CAPRI HOLDI DRN          R$  000000002770200000000277020000000027702000000002770200000000277020000000019400000000002860800001000000000000000018000000000000498636000000000000009999123100000010000000000000BRCAPHBDR008100
012021062502CARD3       010CSU CARDSYSTON      NM   R$  000000000239200000000024430000000002358000000000239300000000023800000000002380000000000238501545000000000000281300000000000673255200000000000000009999123100000010000000000000BRCARDACNOR9122
012021062502CASH3       010MELIUZ      ON      NM   R$  000000000488800000000051800000000004857000000000504300000000051300000000005130000000000513416722000000000004766000000000024035328500000000000000009999123100000010000000000000BRCASHACNOR8101
012021062502CATP34      010CATERPILLAR DRN          R$  000000000679100000000068320000000006652000000000675700000000066520000000006650000000000683000032000000000000004004000000000027058720000000000000009999123100000010000000000000BRCATPBDR003140
012021062502CBEE3       010AMPLA ENERG ON           R$  000000000249700000000024970000000002411000000000243900000000024550000000002455000000000245600005000000000000000500000000000001219600000000000000009999123100000010000000000000BRCBEEACNOR3156
012021062502CCPR3       010CYRE COM-CCPON      NM   R$  000000000125600000000012600000000001207000000000122800000000012150000000001215000000000122800998000000000000205500000000000252550100000000000000009999123100000010000000000000BRCCPRACNOR9116
012021062502CCRO3       010CCR SA      ON      NM   R$  000000000136600000000013740000000001314000000000133500000000013340000000001332000000000133417373000000000006777300000000009049594500000000000000009999123100000010000000000000BRCCROACNOR2139
012021062502CEAB3       010CEA MODAS   ON      NM   R$  000000000147700000000014800000000001400000000000145000000000014660000000001461000000000146604962000000000001465200000000002125619400000000000000009999123100000010000000000000BRCEABACNOR1101
012021062502CEBR3       010CEB         ON           R$  000000001912000000000191210000000018411000000001902300000000191210000000018600000000001912500012000000000000001200000000000022828600000000000000009999123100000010000000000000BRCEBRACNOR5119
012021062502CEDO3       010CEDRO       ON      N1   R$  000000000100200000000010200000000001002000000000100600000000010020000000001002000000000102000008000000000000001400000000000001409200000000000000009999123100000010000000000000BRCEDOACNOR8096
012021062502CEDO4       010CEDRO       PN      N1   R$  000000000074600000000007950000000000740000000000076500000000007750000000000749000000000077500129000000000000039400000000000030173500000000000000009999123100000010000000000000BRCEDOACNPR5128
012021062502CEEB3       010COELBA      ON           R$  000000000395000000000040000000000003950000000000399700000000039800000000000000000000000405000013000000000000009700000000000038771000000000000000009999123100000010000000000000BRCEEBACNOR3181
012021062502CEEB5       010COELBA      PNA          R$  000000000380100000000038010000000003801000000000380000000000038010000000003800000000000409000002000000000000000200000000000000760100000000000000009999123100000010000000000000BRCEEBACNPA6175
012021062502CEED3       010CEEE-D      ON      N1   R$  000000000570000000000057000000000005550000000000565000000000055500000000005500000000000618000003000000000000000300000000000001695000000000000000009999123100000010000000000000BRCEEDACNOR9103
012021062502CEGR3       010CEG         ON           R$  000000000610000000000061000000000006100000000000610000000000061000000000006000000000000610000001000000000000000100000000000000610000000000000000009999123100000010000000000000BRCEGRACNOR4139
012021062502CESP3       010CESP        ON      N1   R$  000000000283100000000028310000000002800000000000280800000000028050000000002800000000000284900010000000000000001200000000000003369700000000000000009999123100000010000000000000BRCESPACNOR3171
012021062502CESP5       010CESP        PNA     N1   R$  000000000360200000000036020000000003602000000000360200000000036020000000003500000000000457000001000000000000000100000000000000360200000000000000009999123100000010000000000000BRCESPACNPA6118
012021062502CESP6       010CESP        PNB     N1   R$  000000000245000000000024570000000002401000000000242200000000024230000000002417000000000242302920000000000001193000000000002890327000000000000000009999123100000010000000000000BRCESPACNPB4130
012021062502CGAS5       010COMGAS      PNA          R$  000000001568000000000156800000000015258000000001542800000000152580000000015014000000001568500023000000000000003900000000000060172600000000000000009999123100000010000000000000BRCGASACNPA3150
012021062502CGRA3       010GRAZZIOTIN  ON           R$  000000000348100000000035000000000003410000000000343200000000034200000000003420000000000346500059000000000000007900000000000027114600000000000000009999123100000010000000000000BRCGRAACNOR2072
012021062502CGRA4       010GRAZZIOTIN  PN           R$  000000000342500000000035360000000003418000000000348600000000035210000000003417000000000352100257000000000000045400000000000158283000000000000000009999123100000010000000000000BRCGRAACNPR9072
012021062502CHCM34      010CHARTER COMMDRN          R$  000000000583800000000059690000000005824000000000592400000000059580000000005771000000000598500153000000000000001202000000000007121110000000000000009999123100000010000000000000BRCHCMBDR001101
012021062502CHVX34      010CHEVRON     DRN          R$  000000000525000000000053290000000005250000000000529400000000052880000000005288000000000532900102000000000000010662000000000056451281000000000000009999123100000010000000000000BRCHVXBDR008142
012021062502CIEL3       010CIELO       ON      NM   R$  000000000037300000000003750000000000362000000000036700000000003670000000000366000000000036717400000000000021056900000000007740930200000000000000009999123100000010000000000000BRCIELACNOR3145
012021062502CINF34      010CINCINNATI  DRN ED       R$  000000002930600000000294100000000029306000000002935800000000294100000000000000000000002980000002000000000000000036000000000001056888000000000000009999123100000010000000000000BRCINFBDR000107
012021062502CLSC4       010CELESC      PN      N2   R$  000000000695400000000069540000000006802000000000689200000000069270000000006801000000000692800020000000000000002600000000000017921600000000000000009999123100000010000000000000BRCLSCACNPR3117
012021062502CMCS34      010COMCAST     DRN          R$  000000000552300000000056220000000005523000000000559700000000055590000000005559000000000566100129000000000000026014000000000145602147000000000000009999123100000010000000000000BRCMCSBDR008139
012021062502CMIG3       010CEMIG       ON      N1   R$  000000000153200000000015370000000001493000000000151500000000014990000000001499000000000150201656000000000000369900000000000560572900000000000000009999123100000010000000000000BRCMIGACNOR6227
012021062502CMIG4       010CEMIG       PN      N1   R$  000000000127400000000012780000000001240000000000125800000000012530000000001252000000000125324662000000000009352800000000011770979700000000000000009999123100000010000000000000BRCMIGACNPR3228
012021062502CMIN3       010CSNMINERACAOON      N2   R$  000000000094000000000009430000000000933000000000093500000000009360000000000934000000000093610301000000000005822100000000005446728600000000000000009999123100000010000000000000BRCMINACNOR2101
012021062502COCA34      010COCA COLA   DRN          R$  000000000445000000000045080000000004420000000000447000000000044890000000004488000000000448900983000000000000044818000000000200349282000000000000009999123100000010000000000000BRCOCABDR002140
012021062502COCE5       010COELCE      PNA          R$  000000000600000000000060780000000005843000000000598100000000059890000000005840000000000598900250000000000000190800000000001141238300000000000000009999123100000010000000000000BRCOCEACNPA3141
012021062502COGN3       010COGNA ON    ON      NM   R$  000000000047800000000004800000000000454000000000046300000000004590000000000459000000000046025625000000000041589500000000019287118000000000000000009999123100000010000000000000BRCOGNACNOR2102
012021062502COLG34      010COLGATE     DRN          R$  000000000565000000000057600000000005650000000000572100000000057540000000005718000000000592600007000000000000000055000000000000314670000000000000009999123100000010000000000000BRCOLGBDR000141
012021062502COPH34      010COPHILLIPS  DRN          R$  000000000752900000000076230000000007529000000000755600000000076230000000007480000000000786400011000000000000002046000000000015460346000000000000009999123100000010000000000000BRCOPHBDR009138
012021062502COTY34      010COTY INC    DRN          R$  000000000231400000000023570000000002314000000000234100000000023480000000002237000000000237300004000000000000000029000000000000067914000000000000009999123100000010000000000000BRCOTYBDR006116
012021062502COWC34      010COSTCO      DRN          R$  000000000481500000000048930000000004815000000000485700000000048760000000004817000000000491400032000000000000000996000000000004837617000000000000009999123100000010000000000000BRCOWCBDR006124
012021062502CPFE3       010CPFL ENERGIAON      NM   R$  000000000280400000000028210000000002734000000000277700000000027530000000002753000000000275408723000000000001838200000000005104985000000000000000009999123100000010000000000000BRCPFEACNOR0131
012021062502CPLE3       010COPEL       ON      N1   R$  000000000058300000000005840000000000565000000000057100000000005670000000000567000000000056903933000000000001856100000000001060741300000000000000009999123100000010000000000000BRCPLEACNOR8143
012021062502CPLE5       010COPEL       PNA     N1   R$  000000000401200000000054020000000004012000000000502000000000050000000000004579000000000650000011000000000000001100000000000005522100000000000000009999123100000010000000000000BRCPLEACNPA1140
012021062502CPLE6       010COPEL       PNB     N1   R$  000000000061800000000006210000000000607000000000061200000000006110000000000610000000000061112645000000000005475400000000003356046900000000000000009999123100000010000000000000BRCPLEACNPB9140
012021062502CPLE11      010COPEL       UNT     N1   R$  000000000307000000000030700000000003000000000000302000000000030300000000003005000000000303000876000000000000246100000000000743245300000000000000009999123100000010000000000000BRCPLECDAM13101
012021062502CPRL34      010CANAD PACIFIDRN ED       R$  000000000958500000000095850000000009585000000000958500000000095850000000000000000000000000000001000000000000000004000000000000038340000000000000009999123100000010000000000000BRCPRLBDR004108
012021062502CRFB3       010CARREFOUR BRON  EJ  NM   R$  000000000217100000000021710000000002125000000000214600000000021390000000002134000000000213910677000000000003287900000000007056676400000000000000009999123100000010000000000000BRCRFBACNOR2109
012021062502CRIP34      010CTRIPCOM    DRN          R$  000000001807600000000180760000000017362000000001807100000000173620000000017000000000002000000003000000000000000352000000000006361324000000000000009999123100000010000000000000BRCRIPBDR000100
012021062502CRIV3       010ALFA FINANC ON           R$  000000000057600000000008400000000000570000000000069700000000006210000000000621000000000063400812000000000000196600000000000137185000000000000000009999123100000010000000000000BRCRIVACNOR4194
012021062502CRIV4       010ALFA FINANC PN           R$  000000000065900000000007240000000000620000000000067600000000006200000000000617000000000063900255000000000000080800000000000054670000000000000000009999123100000010000000000000BRCRIVACNPR1205
012021062502CRPG3       010CRISTAL     ON           R$  000000000840000000000084000000000008400000000000840000000000084000000000000000000000000860000001000000000000000100000000000000840000000000000000009999123100000010000000000000BRCRPGACNOR0111
012021062502CRPG5       010CRISTAL     PNA          R$  000000000880100000000088850000000008692000000000876300000000087490000000008749000000000879000105000000000000024300000000000212942600000000000000009999123100000010000000000000BRCRPGACNPA3111
012021062502CRPG6       010CRISTAL     PNB          R$  000000000885000000000090000000000008850000000000892400000000090000000000008850000000000900000003000000000000000400000000000003569900000000000000009999123100000010000000000000BRCRPGACNPB1111
012021062502CSAN3       010COSAN       ON      NM   R$  000000000250300000000025390000000002453000000000248400000000024730000000002472000000000247322945000000000009176400000000022794476800000000000000009999123100000010000000000000BRCSANACNOR6121
012021062502CSCO34      010CISCO       DRN          R$  000000000519000000000052550000000005190000000000524700000000052450000000005174000000000554700009000000000000000100000000000000524750000000000000009999123100000010000000000000BRCSCOBDR004142
012021062502CSED3       010CRUZEIRO EDUON      NM   R$  000000000160600000000016070000000001549000000000156500000000015490000000001549000000000156801320000000000000302700000000000474025200000000000000009999123100000010000000000000BRCSEDACNOR9101
012021062502CSMG3       010COPASA      ON  EJ  NM   R$  000000000162300000000016310000000001584000000000160900000000016050000000001604000000000160506046000000000002094700000000003372115800000000000000009999123100000010000000000000BRCSMGACNOR5162
012021062502CSNA3       010SID NACIONALON           R$  000000000451000000000045540000000004324000000000440000000000043550000000004352000000000435528696000000000016099600000000070850654900000000000000009999123100000010000000000000BRCSNAACNOR6253
012021062502CSRN6       010COSERN      PNB          R$  000000000253100000000025310000000002531000000000253000000000025310000000002530000000000472000002000000000000000200000000000000506100000000000000009999123100000010000000000000BRCSRNACNPB1175
012021062502CSXC34      010CSX CORP    DRN          R$  000000002382800000000238280000000023828000000002382800000000238280000000000000000000000000000001000000000000000100000000000002382800000000000000009999123100000010000000000000BRCSXCBDR005108
012021062502CTGP34      010CITIGROUP   DRN          R$  000000000583500000000059230000000005764000000000586400000000058840000000005884000000000600000028000000000000004614000000000027058652000000000000009999123100000010000000000000BRCTGPBDR000142
012021062502CTKA4       010KARSTEN     PN           R$  000000000252000000000025200000000002500000000000250400000000025000000000002500000000000255500006000000000000001100000000000002754800000000000000009999123100000010000000000000BRCTKAACNPR7043
012021062502CTNM3       010COTEMINAS   ON           R$  000000000120000000000012450000000001200000000000122200000000012450000000001161000000000124000002000000000000000200000000000000244500000000000000009999123100000010000000000000BRCTNMACNOR9130
012021062502CTNM4       010COTEMINAS   PN           R$  000000000069700000000007000000000000670000000000068500000000006850000000000670000000000068500058000000000000014500000000000009938500000000000000009999123100000010000000000000BRCTNMACNPR6129
012021062502CTSA3       010SANTANENSE  ON           R$  000000000031400000000003150000000000288000000000030400000000003020000000000302000000000030600279000000000000094300000000000028696200000000000000009999123100000010000000000000BRCTSAACNOR3060
012021062502CTSA4       010SANTANENSE  PN           R$  000000000031300000000003140000000000290000000000030000000000002940000000000294000000000029700373000000000000203500000000000061082800000000000000009999123100000010000000000000BRCTSAACNPR0060
012021062502CURY3       010CURY S/A    ON      NM   R$  000000000103200000000010550000000001025000000000103500000000010360000000001033000000000103702538000000000000701500000000000726278900000000000000009999123100000010000000000000BRCURYACNOR3101
012021062502CVCB3       010CVC BRASIL  ON  ES  NM   R$  000000000284100000000028520000000002720000000000277500000000027650000000002760000000000276514355000000000005066600000000014060898300000000000000009999123100000010000000000000BRCVCBACNOR1114
012021062502CVSH34      010CVS HEALTH  DRN          R$  000000002066800000000208530000000020668000000002080100000000208530000000020700000000002109400008000000000000000008000000000000166414000000000000009999123100000010000000000000BRCVSHBDR008120
012021062502CXSE3       010CAIXA SEGURION      NM   R$  000000000130000000000013090000000001270000000000129400000000012940000000001289000000000129413455000000000003662900000000004740643200000000000000009999123100000010000000000000BRCXSEACNOR7100
012021062502CYRE3       010CYRELA REALTON      NM   R$  000000000237100000000023720000000002277000000000231500000000022870000000002287000000000229321588000000000005746100000000013303550800000000000000009999123100000010000000000000BRCYREACNOR7136
012021062502D1EL34      010DELL TECHNOLDRN          R$  000000004920000000000492000000000049200000000004920000000000492000000000048001000000005650000001000000000000000030000000000001476000000000000000009999123100000010000000000000BRD1ELBDR009100
012021062502D1EX34      010DEXCOM INC  DRN          R$  000000000415500000000042040000000004136000000000414600000000042040000000003300000000000443000452000000000000004828000000000020019623000000000000009999123100000010000000000000BRD1EXBDR004100
012021062502D1LR34      010DIGITAL REALDRN          R$  000000001846800000000187730000000018468000000001872000000000187560000000017550000000000000000010000000000000000142000000000002658381000000000000009999123100000010000000000000BRD1LRBDR001106
012021062502D1OC34      010DOCUSIGN INCDRN          R$  000000000681500000000069110000000006815000000000686000000000069110000000005200000000000691600018000000000000000929000000000006373843000000000000009999123100000010000000000000BRD1OCBDR007100
012021062502D1OM34      010DOMINION ENEDRN          R$  000000001850400000000185040000000018504000000001850400000000185040000000015489000000000000000001000000000000000001000000000000018504000000000000009999123100000010000000000000BRD1OMBDR006106
012021062502D1OW34      010DOW INC     DRN          R$  000000000775000000000078730000000007750000000000778400000000078730000000007760000000000874500004000000000000000027000000000000210179000000000000009999123100000010000000000000BRD1OWBDR005103
012021062502D1TE34      010DTE ENERGY CDRN ED       R$  000000001610000000000161000000000016100000000001610000000000161000000000000000000000000000000001000000000000000010000000000000161000000000000000009999123100000010000000000000BRD1TEBDR002106
012021062502D1VN34      010DEVON ENERGYDRN          R$  000000001449000000000146100000000014490000000001455000000000146100000000012265000000000000000002000000000000000002000000000000029100000000000000009999123100000010000000000000BRD1VNBDR009107
012021062502DASA3       010DASA        ON      NM   R$  000000000618900000000062750000000006010000000000609900000000060980000000006083000000000610001243000000000005698100000000034755992300000000000000009999123100000010000000000000BRDASAACNOR1120
012021062502DBAG34      010DEUTSCHE AK DRN          R$  000000000656600000000065870000000006566000000000656700000000065870000000006560000000000660500003000000000000000012000000000000078813000000000000009999123100000010000000000000BRDBAGBDR008100
012021062502DDNB34      010DUPONT N INCDRN          R$  000000003822800000000382280000000038228000000003822800000000382280000000030600000000000000000001000000000000000001000000000000038228000000000000009999123100000010000000000000BRDDNBBDR008108
012021062502DEAI34      010DELTA       DRN          R$  000000002190000000000219340000000021900000000002190600000000219330000000021900000000002642000003000000000000000062000000000001358198000000000000009999123100000010000000000000BRDEAIBDR008116
012021062502DEEC34      010DEERE CO    DRN          R$  000000008677400000000867740000000086774000000008677400000000867740000000084400000000008900000003000000000000000035000000000003037090000000000000009999123100000010000000000000BRDEECBDR003108
012021062502DEXP3       010DEXXOS PAR  ON           R$  000000000434200000000044090000000004156000000000427000000000042920000000004292000000000429601156000000000000235000000000001003671300000000000000009999123100000010000000000000BRDEXPACNOR1100
012021062502DEXP4       010DEXXOS PAR  PN           R$  000000000390000000000039000000000003711000000000377200000000038000000000003631000000000389000010000000000000001800000000000006790600000000000000009999123100000010000000000000BRDEXPACNPR8100
012021062502DGCO34      010DOLLAR GENERDRN          R$  000000005257600000000525760000000052576000000005257600000000525760000000000000000000005790900001000000000000000009000000000000473184000000000000009999123100000010000000000000BRDGCOBDR007108
012021062502DIRR3       010DIRECIONAL  ON      NM   R$  000000000151000000000015420000000001446000000000148600000000014710000000001471000000000147205397000000000001481400000000002202548600000000000000009999123100000010000000000000BRDIRRACNOR0114
012021062502DISB34      010WALT DISNEY DRN          R$  000000000583000000000059110000000005811000000000586500000000058810000000005873000000000588100821000000000000046738000000000274154753000000000000009999123100000010000000000000BRDISBBDR006115
012021062502DMMO3       010DOMMO       ON           R$  000000000009700000000001010000000000093000000000009600000000000940000000000094000000000009504388000000000021744300000000002106505000000000000000009999123100000010000000000000BRDMMOACNOR0104
012021062502DMVF3       010D1000VFARMA ON      NM   R$  000000000099500000000009990000000000971000000000098100000000009800000000000980000000000098600416000000000000139400000000000136880400000000000000009999123100000010000000000000BRDMVFACNOR9100
012021062502DOHL3       010DOHLER      ON           R$  000000000274700000000027800000000002747000000000276300000000027800000000002747000000000285000002000000000000000200000000000000552700000000000000009999123100000010000000000000BRDOHLACNOR2060
012021062502DOHL4       010DOHLER      PN           R$  000000000071200000000007220000000000661000000000068400000000006820000000000681000000000068200147000000000000049300000000000033758400000000000000009999123100000010000000000000BRDOHLACNPR9063
012021062502DOTZ3       010DOTZ SA     ON      NM   R$  000000000132400000000013800000000001321000000000135700000000013800000000001332000000000138000281000000000000090200000000000122447400000000000000009999123100000010000000000000BRDOTZACNOR7100
012021062502DTCY3       010DTCOM-DIRECTON           R$  000000000113000000000012140000000001111000000000117700000000011940000000001150000000000119400064000000000000019300000000000022728700000000000000009999123100000010000000000000BRDTCYACNOR5109
012021062502DTEX3       010DURATEX     ON      NM   R$  000000000226300000000023050000000002240000000000227400000000023000000000002290000000000230210173000000000002666900000000006064876600000000000000009999123100000010000000000000BRDTEXACNOR3130
012021062502DVAI34      010DAVITA INC  DRN          R$  000000006078000000000607800000000060780000000006078000000000607800000000000000000000000000000001000000000000000001000000000000060780000000000000009999123100000010000000000000BRDVAIBDR002100
012021062502E1CL34      010ECOLAB INC  DRN          R$  000000002560000000000258500000000025600000000002577100000000258500000000000000000000003100000003000000000000000007000000000000180400000000000000009999123100000010000000000000BRE1CLBDR002106
012021062502E1DI34      010CONSOLIDATEDDRN          R$  000000001805000000000180500000000018050000000001805000000000180500000000000000000000002200000001000000000000000001000000000000018050000000000000009999123100000010000000000000BRE1DIBDR006106
012021062502E1DU34      010NEW ORIENTALDRN          R$  000000000030000000000003000000000000266000000000027100000000002680000000000267000000000027900049000000000000013578000000000003688851000000000000009999123100000010000000000000BRE1DUBDR001101
012021062502E1NI34      010ENEL AMERICADRN          R$  000000000354400000000036300000000003544000000000358900000000036040000000003438000000000363000014000000000000000148000000000000531232000000000000009999123100000010000000000000BRE1NIBDR005102
012021062502E1QN34      010EQUINOR ASA DRN          R$  000000000535000000000053700000000005350000000000536200000000053500000000005100000000000590000004000000000000000310000000000001662500000000000000009999123100000010000000000000BRE1QNBDR008103
012021062502E1QR34      010EQUITY RESIDDRN ED       R$  000000001920900000000195130000000019114000000001940300000000195130000000000000000000002135000005000000000000000138000000000002677689000000000000009999123100000010000000000000BRE1QRBDR009105
012021062502E1RI34      010ERICSSON LM DRN          R$  000000000310000000000031400000000003100000000000313100000000031260000000003093000000000384900004000000000000000053000000000000165994000000000000009999123100000010000000000000BRE1RIBDR006101
012021062502E1SS34      010ESSEX PROPERDRN          R$  000000001522900000000152290000000015168000000001518800000000151680000000015168000000001542000002000000000000000003000000000000045565000000000000009999123100000010000000000000BRE1SSBDR003105
012021062502E1TN34      010EATON CORP PDRN          R$  000000003650000000000365000000000036500000000003650000000000365000000000000000000000000000000001000000000000000050000000000001825000000000000000009999123100000010000000000000BRE1TNBDR002106
012021062502EAIN34      010ELECTR ARTS DRN          R$  000000003413600000000344420000000034000000000003425900000000342250000000034000000000003800000009000000000000000056000000000001918509000000000000009999123100000010000000000000BREAINBDR007103
012021062502EALT3       010ACO ALTONA  ON           R$  000000000147400000000014740000000001474000000000147400000000014740000000001463000000000147300005000000000000001500000000000002211000000000000000009999123100000010000000000000BREALTACNOR4134
012021062502EALT4       010ACO ALTONA  PN           R$  000000000078100000000008100000000000746000000000078400000000007510000000000750000000000076300294000000000000107100000000000084034800000000000000009999123100000010000000000000BREALTACNPR1134
012021062502EBAY34      010EBAY        DRN          R$  000000001650000000000169040000000016500000000001671000000000168310000000016352000000001770000014000000000000000968000000000016176089000000000000009999123100000010000000000000BREBAYBDR009111
012021062502ECOR3       010ECORODOVIAS ON      NM   R$  000000000123200000000012390000000001179000000000119400000000011880000000001187000000000118823535000000000008946500000000010690722600000000000000009999123100000010000000000000BRECORACNOR8116
012021062502EGIE3       010ENGIE BRASILON      NM   R$  000000000406500000000040750000000003965000000000401300000000040130000000004002000000000401307496000000000001426700000000005725869600000000000000009999123100000010000000000000BREGIEACNOR9115
012021062502ELCI34      010ESTEE LAUDERDRN          R$  000000007790300000000779030000000077903000000007790300000000779030000000000000000000008050000001000000000000001100000000000085693300000000000000009999123100000010000000000000BRELCIBDR007107
012021062502ELET3       010ELETROBRAS  ON      N1   R$  000000000461400000000046280000000004406000000000448000000000044320000000004432000000000444031096000000000007544600000000033804987500000000000000009999123100000010000000000000BRELETACNOR6157
012021062502ELET6       010ELETROBRAS  PNB     N1   R$  000000000463000000000046400000000004411000000000449500000000044550000000004455000000000446016874000000000004852500000000021813476100000000000000009999123100000010000000000000BRELETACNPB7074
012021062502ELMD3       010ELETROMIDIA ON      NM   R$  000000000188800000000018910000000001820000000000186800000000018890000000001834000000000188900599000000000000126800000000000236961700000000000000009999123100000010000000000000BRELMDACNOR3100
012021062502EMAE4       010EMAE        PN           R$  000000000923900000000092500000000009111000000000916000000000092340000000009007000000000923600009000000000000000900000000000008244400000000000000009999123100000010000000000000BREMAEACNPR1118
012021062502EMBR3       010EMBRAER     ON      NM   R$  000000000198000000000019850000000001883000000000191800000000019100000000001909000000000191022410000000000009670700000000018552062900000000000000009999123100000010000000000000BREMBRACNOR4190
012021062502ENAT3       010ENAUTA PART ON      NM   R$  000000000155000000000016500000000001540000000000160900000000016480000000001644000000000164810180000000000004733900000000007619900400000000000000009999123100000010000000000000BRENATACNOR0102
012021062502ENBR3       010ENERGIAS BR ON      NM   R$  000000000185800000000018580000000001806000000000182600000000018220000000001821000000000182212745000000000003328900000000006081848900000000000000009999123100000010000000000000BRENBRACNOR2131
012021062502ENEV3       010ENEVA       ON      NM   R$  000000000174600000000017490000000001687000000000170900000000017090000000001707000000000170919530000000000005957500000000010182712200000000000000009999123100000010000000000000BRENEVACNOR8105
012021062502ENGI3       010ENERGISA    ON      N2   R$  000000000181300000000018270000000001740000000000177500000000017450000000001741000000000175800102000000000000012500000000000022199700000000000000009999123100000010000000000000BRENGIACNOR0139
012021062502ENGI4       010ENERGISA    PN      N2   R$  000000000073900000000007410000000000714000000000072700000000007280000000000722000000000072900150000000000000042700000000000031083700000000000000009999123100000010000000000000BRENGIACNPR7135
012021062502ENGI11      010ENERGISA    UNT     N2   R$  000000000475600000000047960000000004613000000000468100000000046460000000004646000000000464708338000000000001574600000000007372237100000000000000009999123100000010000000000000BRENGICDAM16129
012021062502ENJU3       010ENJOEI      ON      NM   R$  000000000106400000000010720000000001041000000000105400000000010560000000001055000000000105702705000000000001611900000000001699219800000000000000009999123100000010000000000000BRENJUACNOR9100
012021062502ENMT3       010ENERGISA MT ON           R$  000000000650000000000065000000000006100000000000622200000000061400000000003701000000000615000004000000000000000400000000000002489000000000000000009999123100000010000000000000BRENMTACNOR5112
012021062502ENMT4       010ENERGISA MT PN           R$  000000000610000000000061000000000006100000000000610000000000061000000000000000000000000615000001000000000000000100000000000000610000000000000000009999123100000010000000000000BRENMTACNPR2116
012021062502EPAR3       010EMBPAR S/A  ON           R$  000000000194800000000019480000000001681000000000182100000000017440000000001743000000000179800047000000000000006300000000000011477200000000000000009999123100000010000000000000BREPARACNOR9100
012021062502EQIX34      010EQUINIX INC DRN          R$  000000000480500000000048700000000004805000000000482000000000048500000000004760000000000490000012000000000000006122000000000029511036000000000000009999123100000010000000000000BREQIXBDR002110
012021062502EQPA3       010EQTL PARA   ON           R$  000000000054800000000005700000000000548000000000055800000000005580000000000558000000000056300084000000000000029500000000000016484900000000000000009999123100000010000000000000BREQPAACNOR1103
012021062502EQTL3       010EQUATORIAL  ON      NM   R$  000000000250400000000025540000000002478000000000252300000000025440000000002540000000000254420077000000000007823200000000019744463200000000000000009999123100000010000000000000BREQTLACNOR0127
012021062502ESPA3       010ESPACOLASER ON      NM   R$  000000000191700000000019330000000001860000000000189500000000018800000000001880000000000189402715000000000000721900000000001368219800000000000000009999123100000010000000000000BRESPAACNOR7101
012021062502EUCA3       010EUCATEX     ON      N1   R$  000000000217700000000021770000000002120000000000213600000000021230000000002120000000000215900014000000000000002000000000000004272500000000000000009999123100000010000000000000BREUCAACNOR1153
012021062502EUCA4       010EUCATEX     PN      N1   R$  000000000104600000000010670000000000995000000000102500000000009950000000000993000000000099500346000000000000181200000000000185873100000000000000009999123100000010000000000000BREUCAACNPR8040
012021062502EVEN3       010EVEN        ON  ED  NM   R$  000000000107900000000010840000000001045000000000106400000000010550000000001054000000000105504270000000000000900400000000000958087400000000000000009999123100000010000000000000BREVENACNOR8114
012021062502EXGR34      010EXPEDIA GROUDRN          R$  000000004258800000000425880000000042588000000004258800000000425880000000041000000000004960000001000000000000000003000000000000127764000000000000009999123100000010000000000000BREXGRBDR004103
012021062502EXXO34      010EXXON MOBIL DRN          R$  000000000796000000000080230000000007929000000000796700000000079640000000007964000000000798800031000000000000003859000000000030745617000000000000009999123100000010000000000000BREXXOBDR006143
012021062502EZTC3       010EZTEC       ON      NM   R$  000000000325000000000032580000000003139000000000317800000000031570000000003157000000000315808835000000000002156200000000006852952600000000000000009999123100000010000000000000BREZTCACNOR0115
012021062502F1BH34      010FORTUNE BRANDRN          R$  000000004822000000000482200000000048220000000004822000000000482200000000048220000000000000000001000000000000000200000000000009644000000000000000009999123100000010000000000000BRF1BHBDR001106
012021062502F1RA34      010FRANKLIN RESDRN          R$  000000001658800000000165880000000016588000000001658800000000165880000000000000000000000000000001000000000000000002000000000000033176000000000000009999123100000010000000000000BRF1RABDR002105
012021062502F1RI34      010FEDERAL REALDRN ED       R$  000000001440000000000146140000000014400000000001442500000000146140000000000000000000000000000003000000000000000330000000000004760560000000000000009999123100000010000000000000BRF1RIBDR005106
012021062502F1TN34      010FORTINET INCDRN          R$  000000005966400000000596640000000059664000000005966400000000596640000000050900000000000000000001000000000000000070000000000004176480000000000000009999123100000010000000000000BRF1TNBDR001100
012021062502FBOK34      010FACEBOOK    DRN          R$  000000000603000000000060670000000005958000000000603300000000059800000000005980000000000603500493000000000000048085000000000290136590000000000000009999123100000010000000000000BRFBOKBDR006101
012021062502FCXO34      010FREEPORT    DRN          R$  000000001858900000000188880000000018523000000001853300000000185230000000018127000000001879300024000000000000000882000000000016346466000000000000009999123100000010000000000000BRFCXOBDR007133
012021062502FDMO34      010FORD MOTORS DRN          R$  000000000753400000000076320000000007496000000000753700000000075950000000007500000000000773900028000000000000003402000000000025641629000000000000009999123100000010000000000000BRFDMOBDR008133
012021062502FDXB34      010FEDEX CORP  DRN ED       R$  000000014372700000001437270000000143727000000014410300000001437270000000144500000000015250000003000000000000000039000000000005620040000000000000009999123100000010000000000000BRFDXBBDR002131
012021062502FESA3       010FERBASA     ON      N1   R$  000000000530000000000053000000000005256000000000526100000000052560000000005256000000000555000004000000000000000800000000000004209200000000000000009999123100000010000000000000BRFESAACNOR8174
012021062502FESA4       010FERBASA     PN      N1   R$  000000000435400000000044310000000004213000000000431700000000042850000000004270000000000428501734000000000000516500000000002229951200000000000000009999123100000010000000000000BRFESAACNPR5070
012021062502FLRY3       010FLEURY      ON      NM   R$  000000000265600000000026670000000002581000000000261300000000026060000000002605000000000260607202000000000001091600000000002852944600000000000000009999123100000010000000000000BRFLRYACNOR5129
012021062502FRAS3       010FRAS-LE     ON      N1   R$  000000000126900000000012720000000001244000000000124800000000012450000000001245000000000125201215000000000000177500000000000221550700000000000000009999123100000010000000000000BRFRASACNOR0151
012021062502FSLR34      010FIRST SOLAR DRN          R$  000000002169300000000219870000000021650000000002178100000000217350000000019600000000002173500010000000000000000035000000000000762366000000000000009999123100000010000000000000BRFSLRBDR001100
012021062502G1AR34      010GARTNER INC DRN          R$  000000002966700000000296670000000029667000000002966700000000296670000000019900000000000000000001000000000000000050000000000001483350000000000000009999123100000010000000000000BRG1ARBDR001100
012021062502G1FI34      010GOLD FIELDS DRN          R$  000000000225000000000022500000000002224000000000224100000000022360000000002224000000000228400006000000000000000296000000000000663554000000000000009999123100000010000000000000BRG1FIBDR009101
012021062502G1MI34      010GENERAL MILLDRN          R$  000000002953000000000295300000000029530000000002953000000000295300000000028417000000000000000001000000000000000001000000000000029530000000000000009999123100000010000000000000BRG1MIBDR005105
012021062502G1PI34      010GLOBAL PAYMEDRN          R$  000000002361600000000236160000000023616000000002361600000000236160000000000000000000000000000001000000000000000001000000000000023616000000000000009999123100000010000000000000BRG1PIBDR008106
012021062502G2DI33      010G2D INVEST  DR3          R$  000000000067900000000006840000000000603000000000063500000000006250000000000625000000000063001878000000000000337857000000000214772229000000000000009999123100000010000000000000BRG2DIBDR002100
012021062502GEOO34      010GE          DRN ED       R$  000000000645100000000065280000000006450000000000651000000000065220000000006361000000000652800157000000000000001177000000000007662911000000000000009999123100000010000000000000BRGEOOBDR000144
012021062502GEPA3       010GER PARANAP ON           R$  000000000370000000000037000000000003651000000000368600000000036510000000003650000000000375000004000000000000000700000000000002580200000000000000009999123100000010000000000000BRGEPAACNOR2148
012021062502GEPA4       010GER PARANAP PN           R$  000000000375700000000037890000000003665000000000372100000000037890000000003665000000000378900008000000000000001000000000000003721100000000000000009999123100000010000000000000BRGEPAACNPR9155
012021062502GFSA3       010GAFISA      ON      NM   R$  000000000049500000000004950000000000459000000000047200000000004650000000000464000000000046504529000000000006215400000000002936013800000000000000009999123100000010000000000000BRGFSAACNOR3119
012021062502GGBR3       010GERDAU      ON      N1   R$  000000000262200000000026660000000002603000000000262400000000026290000000002620000000000262900741000000000000146500000000000384538800000000000000009999123100000010000000000000BRGGBRACNOR1177
012021062502GGBR4       010GERDAU      PN      N1   R$  000000000310400000000031280000000003068000000000309600000000030840000000003078000000000308432072000000000012369500000000038299795300000000000000009999123100000010000000000000BRGGBRACNPR8177
012021062502GGPS3       010GPS         ON      NM   R$  000000000171100000000017470000000001675000000000171400000000016800000000001680000000000170001607000000000000683300000000001171637900000000000000009999123100000010000000000000BRGGPSACNOR9100
012021062502GILD34      010GILEAD      DRN          R$  000000001649000000000166440000000016490000000001664200000000166440000000000000000000001761900002000000000000000101000000000001680890000000000000009999123100000010000000000000BRGILDBDR000121
012021062502GMAT3       010GRUPO MATEUSON      NM   R$  000000000080700000000008070000000000781000000000078600000000007810000000000781000000000078206925000000000003877100000000003051049700000000000000009999123100000010000000000000BRGMATACNOR7100
012021062502GMCO34      010GENERAL MOT DRN          R$  000000000741300000000075220000000007394000000000744100000000074680000000007435000000000752500059000000000000002016000000000015002655000000000000009999123100000010000000000000BRGMCOBDR008116
012021062502GNDI3       010INTERMEDICA ON      NM   R$  000000000871000000000087250000000008383000000000847900000000085060000000008497000000000850616953000000000003297200000000027958541600000000000000009999123100000010000000000000BRGNDIACNOR2103
012021062502GOAU3       010GERDAU MET  ON      N1   R$  000000000130900000000013190000000001295000000000130800000000012950000000001295000000000130000270000000000000082400000000000107800600000000000000009999123100000010000000000000BRGOAUACNOR1254
012021062502GOAU4       010GERDAU MET  PN      N1   R$  000000000142900000000014370000000001411000000000142400000000014270000000001423000000000142717201000000000010990100000000015651244200000000000000009999123100000010000000000000BRGOAUACNPR8255
012021062502GOGL34      010ALPHABET    DRN A        R$  000000000800500000000081100000000007978000000000804700000000080290000000008029000000000804605745000000000000091167000000000733656985000000000000009999123100000010000000000000BRGOGLBDR001101
012021062502GOGL35      010ALPHABET    DRN C        R$  000000000830600000000084670000000008304000000000841300000000083400000000008340000000000864000158000000000000020405000000000171686146000000000000009999123100000010000000000000BRGOGLBDR019101
012021062502GOLL4       010GOL         PN      N2   R$  000000000249000000000024930000000002382000000000242400000000024000000000002399000000000240016189000000000006074800000000014726372600000000000000009999123100000010000000000000BRGOLLACNPR4126
012021062502GPIV33      010GP INVEST   DR3          R$  000000000057100000000005870000000000560000000000056900000000005600000000000560000000000056501223000000000003831626000000002182499725000000000000009999123100000010000000000000BRGPIVBDR003104
012021062502GPRK34      010GEOPARK LTD DRN          R$  000000000661500000000066150000000006615000000000661500000000066150000000005580000000000000000001000000000000000001000000000000006615000000000000009999123100000010000000000000BRGPRKBDR007106
012021062502GPRO34      010GOPRO       DRN          R$  000000000576000000000059100000000005760000000000580600000000057900000000005550000000000590000008000000000000000071000000000000412229000000000000009999123100000010000000000000BRGPROBDR009100
012021062502GRND3       010GRENDENE    ON      NM   R$  000000000099200000000010150000000000983000000000099800000000009930000000000993000000000099406492000000000002368900000000002365550500000000000000009999123100000010000000000000BRGRNDACNOR3161
012021062502GSGI34      010GOLDMANSACHSDRN          R$  000000001817900000000183940000000017941000000001815000000000182880000000017925000000001905600028000000000000001823000000000033089022000000000000009999123100000010000000000000BRGSGIBDR008143
012021062502GSHP3       010GENERALSHOPPON      NM   R$  000000000394400000000039440000000003942000000000394300000000039430000000003942000000000399400004000000000000000400000000000001577200000000000000009999123100000010000000000000BRGSHPACNOR7102
012021062502GUAR3       010GUARARAPES  ON           R$  000000000212000000000021370000000002034000000000207200000000020710000000002066000000000207103704000000000000608100000000001260252400000000000000009999123100000010000000000000BRGUARACNOR4166
012021062502H1OG34      010HARLEY-DAVIDDRN          R$  000000002336800000000233680000000023368000000002336800000000233680000000017979000000000000000002000000000000000009000000000000210312000000000000009999123100000010000000000000BRH1OGBDR004106
012021062502H1SB34      010HSBC HOLDINGDRN          R$  000000000366800000000037060000000003650000000000367600000000037060000000000000000000000400100003000000000000000016000000000000058826000000000000009999123100000010000000000000BRH1SBBDR006101
012021062502HAGA3       010HAGA S/A    ON           R$  000000000044900000000004550000000000422000000000044100000000004340000000000427000000000043500104000000000000059600000000000026326300000000000000009999123100000010000000000000BRHAGAACNOR7103
012021062502HAGA4       010HAGA S/A    PN           R$  000000000037500000000003950000000000356000000000036900000000003650000000000363000000000036500582000000000000344600000000000127344700000000000000009999123100000010000000000000BRHAGAACNPR4103
012021062502HAPV3       010HAPVIDA     ON      NM   R$  000000000158100000000015850000000001522000000000153900000000015340000000001530000000000153425566000000000011318300000000017426083700000000000000009999123100000010000000000000BRHAPVACNOR4109
012021062502HBOR3       010HELBOR      ON      NM   R$  000000000094200000000009420000000000891000000000090900000000008950000000000894000000000089505407000000000001939500000000001763663700000000000000009999123100000010000000000000BRHBORACNOR3115
012021062502HBRE3       010HBR REALTY  ON      NM   R$  000000000169600000000017000000000001670000000000169500000000017000000000001660000000000170400045000000000000018200000000000030855700000000000000009999123100000010000000000000BRHBREACNOR4100
012021062502HBSA3       010HIDROVIAS   ON      NM   R$  000000000062100000000006220000000000597000000000060400000000006050000000000605000000000060606358000000000003589400000000002170761300000000000000009999123100000010000000000000BRHBSAACNOR0100
012021062502HBTS5       010HABITASUL   PNA          R$  000000000540000000000062000000000005305000000000574000000000058600000000005850000000000630000014000000000000001400000000000008036400000000000000009999123100000010000000000000BRHBTSACNPA3125
012021062502HETA3       010HERCULES    ON           R$  000000000499900000000090010000000004999000000000746200000000088690000000003000000000000887000016000000000000001600000000000011939200000000000000009999123100000010000000000000BRHETAACNOR2136
012021062502HETA4       010HERCULES    PN           R$  000000000116100000000019850000000001100000000000159500000000014300000000001413000000000145000498000000000000086600000000000138191800000000000000009999123100000010000000000000BRHETAACNPR9136
012021062502HGTX3       010CIA HERING  ON      NM   R$  000000000351000000000035160000000003363000000000341400000000033920000000003392000000000339508278000000000001778200000000006071356200000000000000009999123100000010000000000000BRHGTXACNOR9153
012021062502HOME34      010HOME DEPOT  DRN          R$  000000000550300000000055990000000005468000000000555700000000055990000000005534000000000559905098000000000000017324000000000096271526000000000000009999123100000010000000000000BRHOMEBDR002138
012021062502HONB34      010HONEYWELL   DRN          R$  000000010849800000001092470000000108177000000010884300000001081770000000000000000000000000000113000000000000000535000000000058231365000000000000009999123100000010000000000000BRHONBBDR006130
012021062502HOND34      010HONDA MO    DRN          R$  000000001550800000000159990000000015508000000001586800000000159990000000015999000000000000000003000000000000000004000000000000063474000000000000009999123100000010000000000000BRHONDBDR002106
012021062502HYPE3       010HYPERA      ON      NM   R$  000000000365300000000036640000000003522000000000355900000000035300000000003530000000000353213521000000000005292800000000018838824100000000000000009999123100000010000000000000BRHYPEACNOR0125
012021062502I1HG34      010INT EXCHANGEDRN          R$  000000000565200000000056520000000005652000000000565200000000056520000000000000000000000000000001000000000000000001000000000000005652000000000000009999123100000010000000000000BRI1HGBDR007100
012021062502I1NC34      010INCYTE CORP DRN          R$  000000002129600000000212960000000021296000000002129600000000212960000000000000000000002531000001000000000000000100000000000002129600000000000000009999123100000010000000000000BRI1NCBDR004100
012021062502I1NF34      010IHS MARKIT LDRN          R$  000000000700100000000070010000000007001000000000700100000000070010000000000000000000000000000001000000000000000002000000000000014002000000000000009999123100000010000000000000BRI1NFBDR007107
012021062502I1PC34      010INTERNATIONADRN          R$  000000003003800000000300380000000030038000000003003800000000300380000000030038000000000000000002000000000000000300000000000009011400000000000000009999123100000010000000000000BRI1PCBDR009106
012021062502I1RM34      010IRON MOUNTAIDRN          R$  000000002121000000000214200000000021000000000002122500000000210000000000021000000000002385000025000000000000005353000000000113620966000000000000009999123100000010000000000000BRI1RMBDR004106
012021062502I1SR34      010INTUITIVE SUDRN          R$  000000004496800000000449680000000044968000000004496800000000449680000000000000000000000000000002000000000000000025000000000001124200000000000000009999123100000010000000000000BRI1SRBDR001100
012021062502IBMB34      010IBM         DRN          R$  000000007199400000000726520000000071700000000007224300000000724200000000070000000000000000000006000000000000000104000000000007513316000000000000009999123100000010000000000000BRIBMBBDR003138
012021062502IFCM3       010INFRACOMM   ON      NM   R$  000000000201700000000020780000000002015000000000202700000000020350000000002035000000000204002945000000000001319300000000002674651900000000000000009999123100000010000000000000BRIFCMACNOR8100
012021062502IGTA3       010IGUATEMI    ON      NM   R$  000000000434200000000043510000000004135000000000421000000000042030000000004200000000000420309673000000000002874000000000012100670200000000000000009999123100000010000000000000BRIGTAACNOR5125
012021062502INGG34      010ING GROEP   DRN          R$  000000000666400000000066640000000006664000000000666400000000066640000000004900000000000000000001000000000000000051000000000000339864000000000000009999123100000010000000000000BRINGGBDR009101
012021062502INTB3       010INTELBRAS   ON      NM   R$  000000000296200000000029700000000002831000000000288500000000028910000000002890000000000289104391000000000001296100000000003740456700000000000000009999123100000010000000000000BRINTBACNOR9100
012021062502IRBR3       010IRBBRASIL REON      NM   R$  000000000060200000000006030000000000596000000000059800000000005990000000000598000000000059913655000000000021196900000000012691558600000000000000009999123100000010000000000000BRIRBRACNOR4108
012021062502ITLC34      010INTEL       DRN          R$  000000000467000000000046700000000004586000000000460400000000045880000000004588000000000463000048000000000000005359000000000024672899000000000000009999123100000010000000000000BRITLCBDR005143
012021062502ITSA3       010ITAUSA      ON      N1   R$  000000000118800000000012010000000001160000000000117300000000011650000000001165000000000117200605000000000000191800000000000225148500000000000000009999123100000010000000000000BRITSAACNOR0410
